:100770000A128A11DB2B08160817881288138810B2
:1007800008118811EB2B081208138812881388149B
:1007900008118811EB2B081208178812881388108B
:1007A00008158811EB2B0816081388128813881077
:1007B00008118815EB2B03138316061486140615EF
:1007C000861506160810881008118811081288125C
:1007D000081388138312061DEE2BF12B861CF42BB5
:1007E000F72B861CFA2BFD2B061CC323CB23061CE0
:1007F000BB23CB23061CD323EB2B061CD323C32301
:02400E00B13FC0
:00000001FF
